{
  "_format": "hh3-artifact-1",
  "contractName": "OffchainResolver",
  "sourceName": "contracts/OffchainResolver.sol",
  "abi": [
    {
      "inputs": [
        {
          "internalType": "string",
          "name": "_url",
          "type": "string"
        },
        {
          "internalType": "address[]",
          "name": "_signers",
          "type": "address[]"
        }
      ],
      "stateMutability": "nonpayable",
      "type": "constructor"
    },
    {
      "inputs": [],
      "name": "ECDSAInvalidSignature",
      "type": "error"
    },
    {
      "inputs": [
        {
          "internalType": "uint256",
          "name": "length",
          "type": "uint256"
        }
      ],
      "name": "ECDSAInvalidSignatureLength",
      "type": "error"
    },
    {
      "inputs": [
        {
          "internalType": "bytes32",
          "name": "s",
          "type": "bytes32"
        }
      ],
      "name": "ECDSAInvalidSignatureS",
      "type": "error"
    },
    {
      "inputs": [
        {
          "internalType": "address",
          "name": "sender",
          "type": "address"
        },
        {
          "internalType": "string[]",
          "name": "urls",
          "type": "string[]"
        },
        {
          "internalType": "bytes",
          "name": "callData",
          "type": "bytes"
        },
        {
          "internalType": "bytes4",
          "name": "callbackFunction",
          "type": "bytes4"
        },
        {
          "internalType": "bytes",
          "name": "extraData",
          "type": "bytes"
        }
      ],
      "name": "OffchainLookup",
      "type": "error"
    },
    {
      "anonymous": false,
      "inputs": [
        {
          "indexed": false,
          "internalType": "address[]",
          "name": "signers",
          "type": "address[]"
        }
      ],
      "name": "NewSigners",
      "type": "event"
    },
    {
      "anonymous": false,
      "inputs": [
        {
          "indexed": true,
          "internalType": "address",
          "name": "previousOwner",
          "type": "address"
        },
        {
          "indexed": true,
          "internalType": "address",
          "name": "newOwner",
          "type": "address"
        }
      ],
      "name": "OwnershipTransferred",
      "type": "event"
    },
    {
      "anonymous": false,
      "inputs": [
        {
          "indexed": false,
          "internalType": "string",
          "name": "url",
          "type": "string"
        }
      ],
      "name": "UrlChanged",
      "type": "event"
    },
    {
      "inputs": [
        {
          "internalType": "address",
          "name": "target",
          "type": "address"
        },
        {
          "internalType": "uint64",
          "name": "expires",
          "type": "uint64"
        },
        {
          "internalType": "bytes",
          "name": "request",
          "type": "bytes"
        },
        {
          "internalType": "bytes",
          "name": "result",
          "type": "bytes"
        }
      ],
      "name": "makeSignatureHash",
      "outputs": [
        {
          "internalType": "bytes32",
          "name": "",
          "type": "bytes32"
        }
      ],
      "stateMutability": "pure",
      "type": "function"
    },
    {
      "inputs": [],
      "name": "owner",
      "outputs": [
        {
          "internalType": "address",
          "name": "",
          "type": "address"
        }
      ],
      "stateMutability": "view",
      "type": "function"
    },
    {
      "inputs": [
        {
          "internalType": "bytes",
          "name": "name",
          "type": "bytes"
        },
        {
          "internalType": "bytes",
          "name": "data",
          "type": "bytes"
        }
      ],
      "name": "resolve",
      "outputs": [
        {
          "internalType": "bytes",
          "name": "",
          "type": "bytes"
        }
      ],
      "stateMutability": "view",
      "type": "function"
    },
    {
      "inputs": [
        {
          "internalType": "bytes",
          "name": "response",
          "type": "bytes"
        },
        {
          "internalType": "bytes",
          "name": "extraData",
          "type": "bytes"
        }
      ],
      "name": "resolveWithProof",
      "outputs": [
        {
          "internalType": "bytes",
          "name": "",
          "type": "bytes"
        }
      ],
      "stateMutability": "view",
      "type": "function"
    },
    {
      "inputs": [
        {
          "internalType": "address[]",
          "name": "_signers",
          "type": "address[]"
        },
        {
          "internalType": "bool[]",
          "name": "_enabled",
          "type": "bool[]"
        }
      ],
      "name": "setSigners",
      "outputs": [],
      "stateMutability": "nonpayable",
      "type": "function"
    },
    {
      "inputs": [
        {
          "internalType": "string",
          "name": "_url",
          "type": "string"
        }
      ],
      "name": "setUrl",
      "outputs": [],
      "stateMutability": "nonpayable",
      "type": "function"
    },
    {
      "inputs": [
        {
          "internalType": "address",
          "name": "",
          "type": "address"
        }
      ],
      "name": "signers",
      "outputs": [
        {
          "internalType": "bool",
          "name": "",
          "type": "bool"
        }
      ],
      "stateMutability": "view",
      "type": "function"
    },
    {
      "inputs": [
        {
          "internalType": "bytes4",
          "name": "interfaceID",
          "type": "bytes4"
        }
      ],
      "name": "supportsInterface",
      "outputs": [
        {
          "internalType": "bool",
          "name": "",
          "type": "bool"
        }
      ],
      "stateMutability": "pure",
      "type": "function"
    },
    {
      "inputs": [
        {
          "internalType": "address",
          "name": "newOwner",
          "type": "address"
        }
      ],
      "name": "transferOwnership",
      "outputs": [],
      "stateMutability": "nonpayable",
      "type": "function"
    },
    {
      "inputs": [],
      "name": "url",
      "outputs": [
        {
          "internalType": "string",
          "name": "",
          "type": "string"
        }
      ],
      "stateMutability": "view",
      "type": "function"
    }
  ],
  "bytecode": "0x608060405234801561000f575f5ffd5b506040516115dd3803806115dd83398101604081905261002e916101bd565b5f80546001600160a01b03191633179055600161004b83826102fc565b505f5b81518110156100a757600160025f84848151811061006e5761006e6103b6565b6020908102919091018101516001600160a01b031682528101919091526040015f20805460ff191691151591909117905560010161004e565b507fab0b9cc3a46b568cb08d985497cde8ab7e18892d01f58db7dc7f0d2af859b2d7816040516100d791906103ca565b60405180910390a15050610415565b634e487b7160e01b5f52604160045260245ffd5b604051601f8201601f191681016001600160401b0381118282101715610122576101226100e6565b604052919050565b5f82601f830112610139575f5ffd5b81516001600160401b03811115610152576101526100e6565b8060051b610162602082016100fa565b9182526020818501810192908101908684111561017d575f5ffd5b6020860192505b838310156101b35782516001600160a01b03811681146101a2575f5ffd5b825260209283019290910190610184565b9695505050505050565b5f5f604083850312156101ce575f5ffd5b82516001600160401b038111156101e3575f5ffd5b8301601f810185136101f3575f5ffd5b80516001600160401b0381111561020c5761020c6100e6565b61021f601f8201601f19166020016100fa565b818152866020838501011115610233575f5ffd5b8160208401602083015e5f60208383010152809450505050602083015160018060401b03811115610262575f5ffd5b61026e8582860161012a565b9150509250929050565b600181811c9082168061028c57607f821691505b6020821081036102aa57634e487b7160e01b5f52602260045260245ffd5b50919050565b601f8211156102f757805f5260205f20601f840160051c810160208510156102d55750805b601f840160051c820191505b818110156102f4575f81556001016102e1565b50505b505050565b81516001600160401b03811115610315576103156100e6565b610329816103238454610278565b846102b0565b6020601f82116001811461035b575f83156103445750848201515b5f19600385901b1c1916600184901b1784556102f4565b5f84815260208120601f198516915b8281101561038a578785015182556020948501946001909201910161036a565b50848210156103a757868401515f19600387901b60f8161c191681555b50505050600190811b01905550565b634e487b7160e01b5f52603260045260245ffd5b602080825282518282018190525f918401906040840190835b8181101561040a5783516001600160a01b03168352602093840193909201916001016103e3565b509095945050505050565b6111bb806104225f395ff3fe608060405234801561000f575f5ffd5b506004361061009b575f3560e01c806389102c211161006357806389102c21146101345780638da5cb5b146101475780639061b92314610171578063f2fde38b14610184578063f4d4d2f814610197575f5ffd5b806301ffc9a71461009f5780631dcfea09146100c7578063252498a2146100e85780635600f04f146100fd578063736c0d5b14610112575b5f5ffd5b6100b26100ad366004610a23565b6101aa565b60405190151581526020015b60405180910390f35b6100da6100d5366004610b20565b6101e0565b6040519081526020016100be565b6100fb6100f6366004610be9565b6101f6565b005b610105610273565b6040516100be9190610c55565b6100b2610120366004610c67565b60026020525f908152604090205460ff1681565b6100fb610142366004610cc2565b6102ff565b5f54610159906001600160a01b031681565b6040516001600160a01b0390911681526020016100be565b61010561017f366004610d2c565b610433565b6100fb610192366004610c67565b6105a4565b6101056101a5366004610d2c565b61066b565b5f6001600160e01b03198216639061b92360e01b14806101da57506001600160e01b031982166301ffc9a760e01b145b92915050565b5f6101ed858585856106fd565b95945050505050565b5f546001600160a01b031633146102285760405162461bcd60e51b815260040161021f90610d8a565b60405180910390fd5b6001610235828483610e31565b507f222e6ab7f56b3b52741c3ac808a4825c6c6f60f4588cf90b8fc2decf0fdc7a368282604051610267929190610f12565b60405180910390a15050565b6001805461028090610dad565b80601f01602080910402602001604051908101604052809291908181526020018280546102ac90610dad565b80156102f75780601f106102ce576101008083540402835291602001916102f7565b820191905f5260205f20905b8154815290600101906020018083116102da57829003601f168201915b505050505081565b5f546001600160a01b031633146103285760405162461bcd60e51b815260040161021f90610d8a565b8281146103695760405162461bcd60e51b815260206004820152600f60248201526e098cadccee8d040dad2e6dac2e8c6d608b1b604482015260640161021f565b5f5b838110156103f35782828281811061038557610385610f2d565b905060200201602081019061039a9190610f41565b60025f8787858181106103af576103af610f2d565b90506020020160208101906103c49190610c67565b6001600160a01b0316815260208101919091526040015f20805460ff191691151591909117905560010161036b565b507fab0b9cc3a46b568cb08d985497cde8ab7e18892d01f58db7dc7f0d2af859b2d78484604051610425929190610f60565b60405180910390a150505050565b60605f639061b92360e01b868686866040516024016104559493929190610fac565b60408051601f19818403018152918152602080830180516001600160e01b03166001600160e01b03199590951694909417909352805160018082528183019092529193505f9282015b606081526020019060019003908161049e579050509050600180546104c290610dad565b80601f01602080910402602001604051908101604052809291908181526020018280546104ee90610dad565b80156105395780601f1061051057610100808354040283529160200191610539565b820191905f5260205f20905b81548152906001019060200180831161051c57829003601f168201915b5050505050815f8151811061055057610550610f2d565b602002602001018190525030818363f4d4d2f860e01b8530604051602001610579929190610fdd565b60408051601f1981840301815290829052630556f18360e41b825261021f9594939291600401611006565b5f546001600160a01b031633146105cd5760405162461bcd60e51b815260040161021f90610d8a565b6001600160a01b0381166106125760405162461bcd60e51b815260206004820152600c60248201526b5a65726f206164647265737360a01b604482015260640161021f565b5f80546040516001600160a01b03808516939216917f8be0079c531659141344cd1fd0a4f28419497f9722a3daafe3b4186f6b6457e091a35f80546001600160a01b0319166001600160a01b0392909216919091179055565b60605f5f61067b85858989610775565b6001600160a01b0382165f90815260026020526040902054919350915060ff166106f35760405162461bcd60e51b8152602060048201526024808201527f5369676e617475726556657269666965723a20496e76616c6964207369676e616044820152637475726560e01b606482015260840161021f565b9695505050505050565b815160209283012081519183019190912060408051601960f81b8186015260609690961b6bffffffffffffffffffffffff1916602287015260c09490941b6001600160c01b0319166036860152603e850191909152605e8085019190915282518085039091018152607e909301909152815191012090565b5f6060818080610787868801886110b1565b919450925090505f8061079c8a8c018c611123565b915091505f6107b66107b08387868a6106fd565b8561082e565b905042856001600160401b0316101561081d5760405162461bcd60e51b8152602060048201526024808201527f5369676e617475726556657269666965723a205369676e6174757265206578706044820152631a5c995960e21b606482015260840161021f565b9b949a509398505050505050505050565b5f5f5f5f61083c8686610856565b92509250925061084c828261089f565b5090949350505050565b5f5f5f835160410361088d576020840151604085015160608601515f1a61087f8882858561095b565b955095509550505050610898565b505081515f91506002905b9250925092565b5f8260038111156108b2576108b2611171565b036108bb575050565b60018260038111156108cf576108cf611171565b036108ed5760405163f645eedf60e01b815260040160405180910390fd5b600282600381111561090157610901611171565b036109225760405163fce698f760e01b81526004810182905260240161021f565b600382600381111561093657610936611171565b03610957576040516335e2f38360e21b81526004810182905260240161021f565b5050565b5f80807f7fffffffffffffffffffffffffffffff5d576e7357a4501ddfe92f46681b20a084111561099457505f91506003905082610a19565b604080515f808252602082018084528a905260ff891692820192909252606081018790526080810186905260019060a0016020604051602081039080840390855afa1580156109e5573d5f5f3e3d5ffd5b5050604051601f1901519150506001600160a01b038116610a1057505f925060019150829050610a19565b92505f91508190505b9450945094915050565b5f60208284031215610a33575f5ffd5b81356001600160e01b031981168114610a4a575f5ffd5b9392505050565b6001600160a01b0381168114610a65575f5ffd5b50565b80356001600160401b0381168114610a7e575f5ffd5b919050565b634e487b7160e01b5f52604160045260245ffd5b5f82601f830112610aa6575f5ffd5b81356001600160401b03811115610abf57610abf610a83565b604051601f8201601f19908116603f011681016001600160401b0381118282101715610aed57610aed610a83565b604052818152838201602001851015610b04575f5ffd5b816020850160208301375f918101602001919091529392505050565b5f5f5f5f60808587031215610b33575f5ffd5b8435610b3e81610a51565b9350610b4c60208601610a68565b925060408501356001600160401b03811115610b66575f5ffd5b610b7287828801610a97565b92505060608501356001600160401b03811115610b8d575f5ffd5b610b9987828801610a97565b91505092959194509250565b5f5f83601f840112610bb5575f5ffd5b5081356001600160401b03811115610bcb575f5ffd5b602083019150836020828501011115610be2575f5ffd5b9250929050565b5f5f60208385031215610bfa575f5ffd5b82356001600160401b03811115610c0f575f5ffd5b610c1b85828601610ba5565b90969095509350505050565b5f81518084528060208401602086015e5f602082860101526020601f19601f83011685010191505092915050565b602081525f610a4a6020830184610c27565b5f60208284031215610c77575f5ffd5b8135610a4a81610a51565b5f5f83601f840112610c92575f5ffd5b5081356001600160401b03811115610ca8575f5ffd5b6020830191508360208260051b8501011115610be2575f5ffd5b5f5f5f5f60408587031215610cd5575f5ffd5b84356001600160401b03811115610cea575f5ffd5b610cf687828801610c82565b90955093505060208501356001600160401b03811115610d14575f5ffd5b610d2087828801610c82565b95989497509550505050565b5f5f5f5f60408587031215610d3f575f5ffd5b84356001600160401b03811115610d54575f5ffd5b610d6087828801610ba5565b90955093505060208501356001600160401b03811115610d7e575f5ffd5b610d2087828801610ba5565b6020808252600990820152682737ba1037bbb732b960b91b604082015260600190565b600181811c90821680610dc157607f821691505b602082108103610ddf57634e487b7160e01b5f52602260045260245ffd5b50919050565b601f821115610e2c57805f5260205f20601f840160051c81016020851015610e0a5750805b601f840160051c820191505b81811015610e29575f8155600101610e16565b50505b505050565b6001600160401b03831115610e4857610e48610a83565b610e5c83610e568354610dad565b83610de5565b5f601f841160018114610e8d575f8515610e765750838201355b5f19600387901b1c1916600186901b178355610e29565b5f83815260208120601f198716915b82811015610ebc5786850135825560209485019460019092019101610e9c565b5086821015610ed8575f1960f88860031b161c19848701351681555b505060018560011b0183555050505050565b81835281816020850137505f828201602090810191909152601f909101601f19169091010190565b602081525f610f25602083018486610eea565b949350505050565b634e487b7160e01b5f52603260045260245ffd5b5f60208284031215610f51575f5ffd5b81358015158114610a4a575f5ffd5b602080825281018290525f8360408301825b85811015610fa2578235610f8581610a51565b6001600160a01b0316825260209283019290910190600101610f72565b5095945050505050565b604081525f610fbf604083018688610eea565b8281036020840152610fd2818587610eea565b979650505050505050565b604081525f610fef6040830185610c27565b905060018060a01b03831660208301529392505050565b5f60a0820160018060a01b038816835260a0602084015280875180835260c08501915060c08160051b8601019250602089015f5b8281101561106b5760bf19878603018452611056858351610c27565b9450602093840193919091019060010161103a565b5050505082810360408401526110818187610c27565b6001600160e01b031986166060850152905082810360808401526110a58185610c27565b98975050505050505050565b5f5f5f606084860312156110c3575f5ffd5b83356001600160401b038111156110d8575f5ffd5b6110e486828701610a97565b9350506110f360208501610a68565b915060408401356001600160401b0381111561110d575f5ffd5b61111986828701610a97565b9150509250925092565b5f5f60408385031215611134575f5ffd5b82356001600160401b03811115611149575f5ffd5b61115585828601610a97565b925050602083013561116681610a51565b809150509250929050565b634e487b7160e01b5f52602160045260245ffdfea2646970667358221220cd240881fce6ef2420f4fd9a82711f2e28e0eff3c7ced48a34a6199c73b8af6c64736f6c634300081c0033",
  "linkReferences": {},
  "deployedLinkReferences": {},
  "immutableReferences": {},
  "inputSourceName": "project/contracts/OffchainResolver.sol",
  "buildInfoId": "solc-0_8_28-f3ddb0cc6e483e69dd8beaee23bf9ad2070eb0d7"
}